:100000000C9446000C9465000C9465000C946500FB
:100010000C9465000C9465000C9465000C946500CC
:100020000C9465000C9465000C9465000C946500BC
:100030000C9465000C9465000C9465000C946500AC
:100040000C9465000C9465000C9465000C9465009C
:100050000C9465000C9465000C9465000C9465008C
:100060000C9465000C9465000C9465000C9465007C
:100070000C9465000C9465000C9465000C9465006C
:100080000C9465000C9465000C94650011241FBE4F
:10009000CFEFD0E1DEBFCDBF11E0A0E0B1E0EEE9EF
:1000A000F7E000E00BBF02C007900D92AE31B10740
:1000B000D9F721E0AEE1B1E001C01D92A632B2074E
:1000C000E1F70E9435030C94CD030C940000E1E6A7
:1000D000F0E080818E608083E2E6F0E08081817FC5
:1000E00080830895E2E6F0E0808182608083089555
:1000F000E2E6F0E080818D7F80830895E2E6F0E023
:100100008081846080830895E2E6F0E080818B7FC7
:1001100080830895E2E6F0E080818860808308951E
:10012000E2E6F0E08081877F80830895809373000A
:1001300084E8809374008091740087FFFCCF089559
:10014000CF93DF9390912001692B982F907FD92F27
:10015000D62BC82FC295C07FC62B84EA809374002B
:100160008091740087FFFCCF80912101880F0E944D
:1001700096008D2F84600E94960082E08A95F1F7A8
:1001800000C08D2F0E9496008C2F84600E949600E4
:1001900082E08A95F1F700C08C2F0E94960084E9D6
:1001A000809374008091740084FDFCCF85E88A956B
:1001B000F1F70000DF91CF91089560E00C94A0006A
:1001C0008093210188E08093200181B3836081BB0B
:1001D00080E280937000109271002FE788E391E035
:1001E000215080409040E1F700C00000089581E078
:1001F0000E94DD008FE99FE00197F1F700C0000049
:10020000089580931F0160931E018FE295E7019787
:10021000F1F700C0000083E00E94DD008FE097E26C
:100220000197F1F700C0000083E00E94DD0087EC39
:1002300090E00197F1F700C0000083E00E94DD002C
:1002400082E00E94DD0088E20E94DD008CE00E94D6
:10025000DD0086E00E94DD000C94F70090911F0104
:100260008917B8F420911E01621798F4811561F086
:10027000813029F484E1933038F480E405C0823081
:10028000E1F784E59430C8F3680F862F80680C94FA
:10029000DD00089582E00E94DD008FE99FE0019774
:1002A000F1F700C000000895CF93DF93EC0189912E
:1002B000811103C0DF91CF91089561E00E94A000F9
:1002C000F6CF88E10C94DD008CE10C94DD0088E031
:1002D0008093200180E00C94DD001092200180E0EA
:1002E0000C94DD008F929F92AF92BF92CF92DF92DB
:1002F000EF92FF921F93CF93DF93CDB7DEB72C978A
:100300000FB6F894DEBF0FBECDBF6B017C01C114E8
:10031000D104E104F104A9F461E080E32C960FB666
:10032000F894DEBF0FBECDBFDF91CF911F91FF903C
:10033000EF90DF90CF90BF90AF909F908F900C94F4
:10034000A00064F461E08DE20E94A000F094E094CB
:10035000D094C094C11CD11CE11CF11C10E08AE0B7
:10036000882E912CA12CB12CC701B601A5019401B6
:100370000E948C03FE013196E10FF11D17FDFA95E5
:100380001F5F605D608369017A01C114D104E104DB
:10039000F10451F7111694F02C960FB6F894DEBFC5
:1003A0000FBECDBFDF91CF911F91FF90EF90DF90F7
:1003B000CF90BF90AF909F908F9008951150FE0105
:1003C0003196E10FF11D61E080810E94A000E2CF33
:1003D000AA9A82E08A95F1F700C0AA9885E88A95E2
:1003E000F1F700000895CF93C82F611561F0A89A26
:1003F000A9988091240190912501019731F4C8BBFF
:10040000CF910C94E801A898F3CF88B38F709C2FFC
:10041000907F892B88BB0E94E80188B38F70C295BA
:10042000C07FC82BECCFCF93C82F60E00E94F301B0
:10043000C150C23030F48FE99FE00197F1F700C05E
:100440000000CF9108959C01909325018093240191
:1004500084B3876084BB87B39FEF2130310509F0F7
:1004600090EF892B87BBBB9AC39A2FE788E391E073
:10047000215080409040E1F700C00000089581E0E5
:100480000C94130280932301609322018FE295E77D
:100490000197F1F700C0000080912401909125019F
:1004A000019701F580E30E9413028FE097E2019724
:1004B000F1F700C0000080E30E94130287EC90E097
:1004C0000197F1F700C0000080E30E94130288E367
:1004D0000E9413028CE00E94130286E00E94130225
:1004E0000C943F0283E00E9413028FE097E2019791
:1004F000F1F700C0000083E00E94130287EC90E057
:100500000197F1F700C0000082E00E94130288E228
:10051000DFCF909123018917B8F42091220162174F
:1005200098F4811561F0813029F484E1933038F436
:1005300080E405C08230E1F784E59430C8F3680FA9
:10054000862F80680C941302089582E00C941302A5
:10055000CF93DF93EC018991811103C0DF91CF919B
:10056000089561E00E94F301F6CF88E10C94130234
:100570008CE10C941302C39A0895C39808958F9246
:100580009F92AF92BF92CF92DF92EF92FF921F9312
:10059000CF93DF93CDB7DEB72C970FB6F894DEBFBD
:1005A0000FBECDBF6B017C01C114D104E104F10485
:1005B000A9F461E080E32C960FB6F894DEBF0FBE7D
:1005C000CDBFDF91CF911F91FF90EF90DF90CF9043
:1005D000BF90AF909F908F900C94F30164F461E012
:1005E0008DE20E94F301F094E094D094C094C11C79
:1005F000D11CE11CF11C10E08AE0882E912CA12C6A
:10060000B12CC701B601A50194010E948C03FE0123
:100610003196E10FF11D17FDFA951F5F605D608354
:1006200069017A01C114D104E104F10451F71116F2
:1006300094F02C960FB6F894DEBF0FBECDBFDF91BD
:10064000CF911F91FF90EF90DF90CF90BF90AF9030
:100650009F908F9008951150FE013196E10FF11D8A
:1006600061E080810E94F301E2CF87E20E94E00016
:1006700060E182E00E94010180E091E00E9454016B
:1006800060E081E00E942E0182E191E00E9454012D
:100690000E946701C12CD12C0AE010E085E0E82E11
:1006A000F12C6BE081E00E942E01E6012196B6015B
:1006B00080E090E00E9472012FEF84E39CE02150E3
:1006C00080409040E1F700C00000CE01B8010E94D8
:1006D0007803892B21F40E9461016E01E2CFCE01E3
:1006E000B7010E947803892BC1F70E946401F5CFFE
:1006F000AA1BBB1B51E107C0AA1FBB1FA617B70748
:1007000010F0A61BB70B881F991F5A95A9F7809563
:100710009095BC01CD010895052E97FB1EF4009421
:100720000E94A30357FD07D00E94AB0307FC03D030
:100730004EF40C94A30350954095309521953F4F6E
:100740004F4F5F4F089590958095709561957F4FBD
:100750008F4F9F4F0895A1E21A2EAA1BBB1BFD01CC
:100760000DC0AA1FBB1FEE1FFF1FA217B307E40790
:10077000F50720F0A21BB30BE40BF50B661F771FE8
:10078000881F991F1A9469F76095709580959095C8
:0E0790009B01AC01BD01CF010895F894FFCF8D
:10079E0048656C6C6F2C20424B2D415652313238CD
:0E07AE00210047726F6B20726F636B73210026
:00000001FF
