:100000000C9446000C9450000C9450000C9450003A
:100010000C9450000C9450000C9450000C94500020
:100020000C9450000C9450000C9450000C94500010
:100030000C9450000C9450000C9450000C94500000
:100040000C9450000C9450000C9450000C945000F0
:100050000C9450000C9450000C9450000C945000E0
:100060000C9450000C9450000C9450000C945000D0
:100070000C9450000C9450000C9450000C945000C0
:100080000C9450000C9450000C94500011241FBE8E
:10009000CFEFD0E1DEBFCDBF0E9481000C94B00055
:1000A0000C940000E1E6F0E080818E608083E2E65F
:1000B000F0E08081817F80830895E2E6F0E0808136
:1000C000826080830895E2E6F0E080818D7F808306
:1000D0000895E2E6F0E08081846080830895E2E69E
:1000E000F0E080818B7F80830895E2E6F0E08081FC
:1000F000886080830895E2E6F0E08081877F8083D6
:1001000008958FEF8ABB8BBB8AE09BB390959BBB16
:100110002FE738E361E0215030406040E1F700C054
:1001200000008A9591F741E050E03FEF80E090E0D9
:100130002BB3BA01082E01C0660F0A94EAF7262BEA
:100140002BBB7FEF20E762E0715020406040E1F779
:1001500000C000003BBB01968830910549F7E6CF0F
:04016000F894FFCF41
:00000001FF
