:100000000C9446000C945D000C945D000C945D0013
:100010000C945D000C945D000C945D000C945D00EC
:100020000C945D000C945D000C945D000C945D00DC
:100030000C945D000C945D000C945D000C945D00CC
:100040000C945D000C945D000C945D000C945D00BC
:100050000C945D000C945D000C945D000C945D00AC
:100060000C945D000C945D000C945D000C945D009C
:100070000C945D000C945D000C945D000C945D008C
:100080000C945D000C945D000C945D0011241FBE67
:10009000CFEFD0E1DEBFCDBF11E0A0E0B1E0E4E8FA
:1000A000F1E000E00BBF02C007900D92A231B10752
:1000B000D9F70E948E000C94C0000C940000E1E679
:1000C000F0E080818E608083E2E6F0E08081817FD5
:1000D00080830895E2E6F0E0808182608083089565
:1000E000E2E6F0E080818D7F80830895E2E6F0E033
:1000F0008081846080830895E2E6F0E080818B7FD8
:1001000080830895E2E6F0E080818860808308952E
:10011000E2E6F0E08081877F808308958FEF8ABBDD
:1001200084BB8091610086608093610086E080934B
:1001300062006FEF41E050E0A0E0B1E080E090E0CD
:1001400015BA1BBA282FED91EA30C0F4F0E0E85F51
:10015000FE4F3081309535BBFA0102C0EE0FFF1F14
:100160002A95E2F7EBBBEFE9FFE03197F1F700C02A
:10017000000001968830910519F7DECF65BBECCF02
:04018000F894FFCF21
:1001840001020304050607083F065B4F666D7D0701
:020194007F6F7B
:00000001FF
