:100000000C9446000C945D000C945D000C945D0013
:100010000C945D000C945D000C945D000C945D00EC
:100020000C945D000C945D000C945D000C945D00DC
:100030000C945D000C945D000C945D000C945D00CC
:100040000C945D000C945D000C945D000C945D00BC
:100050000C945D000C945D000C945D000C945D00AC
:100060000C945D000C945D000C945D000C945D009C
:100070000C945D000C945D000C945D000C945D008C
:100080000C945D000C945D000C945D0011241FBE67
:10009000CFEFD0E1DEBFCDBF11E0A0E0B1E0E6E000
:1000A000F3E000E00BBF02C007900D92A230B10751
:1000B000D9F70E948C000C9479010C940000E1E6C1
:1000C000F0E080818E6080830895E2E6F0E0808138
:1000D000826080830895E2E6F0E080818D7F8083F6
:1000E0000895E2E6F0E08081846080830895E2E68E
:1000F000F0E080818B7F80830895E2E6F0E08081EC
:10010000886080830895E2E6F0E08081877F8083C5
:100110000895179A1F98089537988AB1877E8AB9EB
:100120006E98809174008B7F8093740083B7887F72
:1001300083BF8EB5887F8EBD85B5887F85BD809154
:100140008A00887F80938A001ABA17BA14BA11BA43
:1001500012B810926100109264000E9489008FEF23
:100160008BBB88BB85BB82BB83B9809362009FE158
:100170009093650091B39F6091BB92B39F6092BBD7
:1001800091B39F7091BB92B3906F92BB8ABB8BBBB4
:100190008AE09BB390959BBB2FE738E341E0215069
:1001A00030404040E1F700C000008A9591F70E947E
:1001B000890020E001E010E0DFEF81E1F82E80E02F
:1001C00090E032B33F6032BB32B3A801082E01C0C9
:1001D000440F0A94EAF74095432342BB5AE15A95EB
:1001E000F1F700C030B3307F303F91F1EFE7F8E333
:1001F00031E0E150F0403040E1F700C0000030B3A2
:10020000432F407F403F21F1C82F34FD0EC0CC0F5B
:10021000CC0FCF5FDBBBEFEFEC0FE83008F048C04E
:10022000F0E0E558FE4F0C94700135FD04C0CC0F92
:10023000CC0FCE5FEFCF36FD04C0CC0FCC0FCD5F1F
:10024000E9CF47FD05C0C1E0C80FCC0FCC0FE2CF0E
:1002500001968430910509F0B4CFC0E0DBCFD89887
:10026000211128C0809100018F9D802D1124855D72
:100270008093000160E50E9464019C5E1F9AEFEC90
:10028000F7E03197F1F700C000002F5F2917B8F3AE
:100290001F9810C0D998E4CFDA98E2CFDB98E0CF6E
:1002A000DC98DECFDD98DCCFDE98DACFDF98D8CFD0
:1002B000C111D6CF0E947D00FAE1FA95F1F700C096
:1002C0000E9483002C2F7BCF992778E0880F991FFD
:1002D000961708F0961B881F7A95C9F780950895A0
:1002E000EE0FFF1F0024001C0BBE0790F691E02DBF
:1002F0000994F894FFCF2F014A014C014E0150019F
:06030000520154015601F8
:020306002A00CB
:00000001FF
