:100000000C9446000C9450000C9450000C9450003A
:100010000C9450000C9450000C9450000C94500020
:100020000C9450000C9450000C9450000C94500010
:100030000C9450000C9450000C9450000C94500000
:100040000C9450000C9450000C9450000C945000F0
:100050000C9450000C9450000C9450000C945000E0
:100060000C9450000C9450000C9450000C945000D0
:100070000C9450000C9450000C9450000C945000C0
:100080000C9450000C9450000C94500011241FBE8E
:10009000CFEFD0E1DEBFCDBF0E947C000C94870083
:1000A0000C940000E1E6F0E080818E60808308958A
:1000B000E2E6F0E08081826080830895E2E6F0E08D
:1000C00080818D7F80830895E2E6F0E08081846006
:1000D00080830895E2E6F0E080818B7F808308953D
:1000E000E2E6F0E08081886080830895E2E6F0E057
:1000F0008081877F808308950E9452000E9458006B
:100100000E9464000E94700080E090E00895F894DE
:02011000FFCF1F
:00000001FF
