:100000000C9446000C9450000C9450000C9450003A
:100010000C9450000C9450000C9450000C94500020
:100020000C9450000C9450000C9450000C94500010
:100030000C9450000C9450000C9450000C94500000
:100040000C9450000C9450000C9450000C945000F0
:100050000C9450000C9450000C9450000C945000E0
:100060000C9450000C9450000C9450000C945000D0
:100070000C9450000C9450000C9450000C945000C0
:100080000C9450000C9450000C94500011241FBE8E
:10009000CFEFD0E1DEBFCDBF0E948C000C94C90031
:1000A0000C940000E1E6F0E080818E608083E2E65F
:1000B000F0E08081817F80830895E2E6F0E0808136
:1000C000826080830895E2E6F0E080818D7F808306
:1000D0000895E2E6F0E08081846080830895E2E69E
:1000E000F0E080818B7F80830895E2E6F0E08081FC
:1000F000886080830895E2E6F0E08081877F8083D6
:1001000008959BB321E030E001C0220F8A95EAF701
:10011000209529232BBB089581B3807F81BB82B3B7
:100120008F6082BB8FEF8ABB8BBB8AE09BB39095BD
:100130009BBB2FE738E391E0215030409040E1F73E
:1001400000C000008A9591F70E94520080B38F7022
:100150008F3051F02FE738E381E02150304080406C
:10016000E1F700C0000080B380E00E94810081E0E0
:100170000E94810082E00E94810083E00E94810051
:100180000E9475009AE19A95F1F700C00E947B00E9
:06019000DDCFF894FFCF63
:00000001FF
