:100000000C9446000C9450000C9450000C9450003A
:100010000C9450000C9450000C9450000C94500020
:100020000C9450000C9450000C9450000C94500010
:100030000C9450000C9450000C9450000C94500000
:100040000C9450000C9450000C9450000C945000F0
:100050000C9450000C9450000C9450000C945000E0
:100060000C9450000C9450000C9450000C945000D0
:100070000C9450000C9450000C9450000C945000C0
:100080000C9450000C9450000C94500011241FBE8E
:10009000CFEFD0E1DEBFCDBF0E94C4000C9423019E
:1000A0000C940000E1E6F0E080818E60808308958A
:1000B000E2E6F0E08081826080830895E2E6F0E08D
:1000C00080818D7F80830895E2E6F0E08081846006
:1000D00080830895E2E6F0E080818B7F808308953D
:1000E000E2E6F0E08081886080830895E2E6F0E057
:1000F0008081877F808308958FEF8ABB8BBB8AE0E6
:100100009BB390959BBB2FE738E391E021503040A3
:100110009040E1F700C000008A9591F7089588307B
:1001200078F421E030E0A90102C0440F551F8A9500
:10013000E2F7CA019BB3611104C0809589238BBB90
:100140000895892BFCCFCF93C0E060E08C2F0E94F4
:100150008F002FEF80E792E0215080409040E1F740
:1001600000C0000061E08C2F0E948F002FEF80E71D
:1001700092E0215080409040E1F700C00000CF5F46
:10018000C83019F7CF91089581B3807F81BB82B3C6
:100190008F6082BB0E947C000E94520080B38F70EF
:1001A0008F3009F44EC02FE788E391E02150804062
:1001B0009040E1F700C0000080B3982F9F709F30FF
:1001C00009F43FC080FF37C081FF2BC082FF1BC0F6
:1001D00083FD37C061E080E00E948F0061E081E034
:1001E0000E948F0061E082E00E948F0060E083E067
:1001F0000E948F000E9470002AE12A95F1F700C04A
:100200000E947600CBCF61E080E00E948F0061E029
:1002100081E00E948F0060E082E00E948F0061E038
:10022000E6CF61E080E00E948F0060E081E00E9404
:100230008F0061E0F1CF60E080E00E948F0061E01C
:0A024000F5CF61E0F9CFF894FFCF8D
:00000001FF
