:100000000C9446000C9450000C9450000C9450003A
:100010000C9450000C9450000C9450000C94500020
:100020000C9450000C9450000C9450000C94500010
:100030000C9450000C9450000C9450000C94500000
:100040000C9450000C9450000C9450000C945000F0
:100050000C9450000C9450000C9450000C945000E0
:100060000C9450000C9450000C9450000C945000D0
:100070000C9450000C9450000C9450000C945000C0
:100080000C9450000C9450000C94500011241FBE8E
:10009000CFEFD0E1DEBFCDBF0E9470000C9489008D
:1000A0000C9400008AB31ABA8BB38FEF8BBB97B353
:1000B00017BA98B388BB94B314BA95B385BB91B300
:1000C00011BA92B382BB92B112B893B183B9E1E68F
:1000D000F0E090811082E2E6F0E090818083089564
:1000E0000E945200179A1F981F9A2FE788E391E009
:1000F000215080409040E1F700C000001F982FE79A
:1001000081E397E1215080409040E1F700C000007A
:06011000EBCFF894FFCFD5
:00000001FF
