:100000000C9446000C9450000C9450000C9450003A
:100010000C9450000C9450000C9450000C94500020
:100020000C9450000C9450000C9450000C94500010
:100030000C9450000C9450000C9450000C94500000
:100040000C9450000C9450000C9450000C945000F0
:100050000C9450000C9450000C9450000C945000E0
:100060000C9450000C9450000C9450000C945000D0
:100070000C9450000C9450000C9450000C945000C0
:100080000C9450000C9450000C94500011241FBE8E
:10009000CFEFD0E1DEBFCDBF0E9481000C94E10024
:1000A0000C940000E1E6F0E080818E608083E2E65F
:1000B000F0E08081817F80830895E2E6F0E0808136
:1000C000826080830895E2E6F0E080818D7F808306
:1000D0000895E2E6F0E08081846080830895E2E69E
:1000E000F0E080818B7F80830895E2E6F0E08081FC
:1000F000886080830895E2E6F0E08081877F8083D6
:10010000089537988AB1877E8AB96E988091740075
:100110008B7F8093740083B7887F83BF8EB5887F81
:100120008EBD85B5887F85BD80918A00887F80934C
:100130008A001ABA17BA14BA11BA12B8109261002A
:1001400010926400179A1F988FEF8BBB88BB85BBFA
:1001500082BB83B9809362009FE1909365008ABB64
:100160008BBB8AE09BB390959BBB2FE738E391E074
:10017000215030409040E1F700C000008A9591F78F
:100180000E945200D8982FEF30E782E02150304093
:100190008040E1F700C00000D89A9FEF20E732E0EE
:1001A000915020403040E1F700C000000E947500EF
:1001B0008FE19EE40197F1F700C000000E947B00F0
:0601C000E1CFF894FFCF2F
:00000001FF
