:100000000C9446000C9450000C9450000C9450003A
:100010000C9450000C9450000C9450000C94500020
:100020000C9450000C9450000C9450000C94500010
:100030000C9450000C9450000C9450000C94500000
:100040000C9450000C9450000C9450000C945000F0
:100050000C9450000C9450000C9450000C945000E0
:100060000C9450000C9450000C9450000C945000D0
:100070000C9450000C9450000C9450000C945000C0
:100080000C9450000C9450000C94500011241FBE8E
:10009000CFEFD0E1DEBFCDBF0E9452000C9497009D
:1000A0000C94000037988AB1877E8AB96E98809147
:1000B00074008B7F8093740083B7887F83BF8EB575
:1000C000887F8EBD85B5887F85BD80918A00887FB9
:1000D00080938A001ABA17BA14BA11BA12B81092D9
:1000E0006100109264008FEF8BBB88BB85BB82BB25
:1000F00083B9809362008FE180936500BC9AC498B5
:10010000179A1F98C49A2FEF80E792E02150804001
:100110009040E1F700C00000C4982FEF80E792E024
:10012000215080409040E1F700C00000EBCFF894F0
:02013000FFCFFF
:00000001FF
