:100000000C9446000C9450000C9450000C9450003A
:100010000C9450000C9450000C9450000C94500020
:100020000C9450000C9450000C9450000C94500010
:100030000C9450000C9450000C9450000C94500000
:100040000C9450000C9450000C9450000C945000F0
:100050000C9450000C9450000C9450000C945000E0
:100060000C9450000C9450000C9450000C945000D0
:100070000C9450000C9450000C9450000C945000C0
:100080000C9450000C9450000C94500011241FBE8E
:10009000CFEFD0E1DEBFCDBF0E94C8000C94CD00F1
:1000A0000C940000E1E6F0E080818E60808308958A
:1000B000E2E6F0E08081826080830895E2E6F0E08D
:1000C00080818D7F80830895E2E6F0E08081846006
:1000D00080830895E2E6F0E080818B7F808308953D
:1000E000E2E6F0E08081886080830895E2E6F0E057
:1000F0008081877F808308958FEF8ABB8BBB0E94AE
:1001000052000E9470008AE09BB390959BBB2FE742
:1001100038E391E0215030409040E1F700C000000A
:100120008A9591F70895883078F421E030E0A901AC
:1001300002C0440F551F8A95E2F7CA019BB36111B3
:1001400004C0809589238BBB0895892BFCCFCF9366
:10015000C0E060E08C2F0E9493002FEF80E792E0D8
:10016000215080409040E1F700C0000061E08C2FFA
:100170000E9493002FEF80E792E021508040904052
:10018000E1F700C00000CF5FC83019F7CF910895A4
:0E0190000E947C000E94A700FDCFF894FFCFD4
:00000001FF
